:1000000019C033C032C031C030C02FC02EC02DC087
:100010002CC026C12AC029C028C027C026C025C0A0
:1000200024C023C022C021C020C01FC01EC01DC0CC
:100030001CC01BC011241FBECFEFD4E0DEBFCDBF5C
:1000400011E0A0E0B1E0EEE3F8E002C005900D920F
:10005000A83EB107D9F721E0A8EEB1E001C01D929A
:10006000A23FB207E1F792D3E8C3CACF8BB1806851
:100070008BB98CE08A95F1F700008BB18F778BB943
:100080000895CF93C82F282F22952F7098B1907F75
:1000900098B988B1822B88B9E9DFCF7088B1807FA9
:1000A00088B988B1C82BC8B9E1DFCF910895F89419
:1000B00087B18F6087B98AB180698AB988B18F604A
:1000C00088B98BB18F768BB92FEF87E193E0215000
:1000D00080409040E1F700C0000088B1807F88B97F
:1000E00088B1836088B9C2DF8FEF93EB0197F1F796
:1000F00000C00000BBDF8FEF93EB0197F1F700C06A
:100100000000B4DF88B1807F88B988B1826088B987
:100110008FEF95E30197F1F700C00000A7DF8DEFA7
:1001200090E00197F1F7000088E2ABDF8DEF90E0FF
:100130000197F1F700008CE0A4DF8DEF90E00197CC
:10014000F1F7000086E09DDF8DEF90E00197F1F779
:10015000000081E096DF8FEF95E30197F1F700C093
:10016000000081E08EDF8FEF95E30197F1F700C08B
:100170000000789408959BB190619BB982DF8DEF68
:1001800090E00197F1F700000895CF93DF93EC0121
:1001900002C0F1DF219688818111FBCFDF91CF91E1
:1001A0000895882311F080E401C080E09BB19F7E18
:1001B0009BB9860F805865DF8DEF90E00197F1F7CE
:1001C0000000089587B1807F87B98FE088B986E005
:1001D0008A95F1F7000086B181708093070186B19E
:1001E000869581708093060186B182FB882780F90D
:1001F0008093050186B183FB882780F980930401F1
:1002000087B18F6087B9309107018091030138175A
:1002100018F481E08093EB012091060180910201A6
:10022000281718F481E08093EA01909105018091EC
:100230000101981718F481E08093E901809104018D
:1002400040910001841718F441E04093E801309395
:10025000030120930201909301018093000108950E
:100260001F920F920FB60F9211242F933F934F932B
:100270005F936F937F938F939F93AF93BF93EF930E
:10028000FF9381E08093F101809109018150809377
:100290000901811114C08AE58093090181E08093EE
:1002A000EF0190DF80910801815080930801811156
:1002B00006C08AE08093080181E08093F001FF91FD
:1002C000EF91BF91AF919F918F917F916F915F91CE
:1002D0004F913F912F910F900FBE0F901F90189547
:1002E00060E080E05EDF8BE191E04FDF60E081E085
:1002F00058DF8CE291E049DF0895D9DE60E080E0CC
:1003000050DF8DE391E041DF60E081E04ADF8EE481
:1003100091E03BDF2FEF8FE790E721508040904046
:10032000E1F700C00000DCDF089560E080E039DF25
:100330008FE591E02ADF60E081E033DF80E791E044
:1003400024DF0895F2DF84B1846084B922C085B1CE
:10035000846085B96FE081E024DF81E30CDF2FEF5B
:100360008FE398E3215080409040E1F700C0000007
:1003700085B18B7F85B96FE081E013DF80E3FBDE21
:100380002FEF8FE398E3215080409040E1F700C0C9
:1003900000008091EB018823D1F21092EB011092C2
:1003A000EA011092E9011092E801089582E184BD0A
:1003B00083E085BD8FEE87BD089560E080E0F1DECB
:1003C00081E891E0E2DE60E081E0EBDE80E791E051
:1003D000DCDE08951F93CF93DF93EFDF84B1846059
:1003E00084B98AB180628AB9E1DF9EC08FEE87BD91
:1003F0003FC017B56DE081E0D4DEC9E21C9FC12D7E
:100400001124C295CF7080E38C0FB5DED12F24E686
:10041000C29FD0191124CDECDC9FC12D1124C695AB
:10042000C695C69580E38C0FA6DECC0F8C2F880F67
:10043000880FC80F8D2F8C1B805D9DDE8FEF9FE98D
:1004400025E0815090402040E1F700C000008091FD
:10045000EB01882351F014BC1092EB011092EA01D9
:100460001092E9011092E8016DC087B5815087BDF7
:1004700087B58F3808F0BDCF8FEF9FE720E7815019
:1004800090402040E1F700C000008FE887BD3FC0EA
:1004900017B56DE081E085DEC9E21C9FC12D1124F6
:1004A000C295CF7080E38C0F66DED12F84E6C89FA3
:1004B000D0191124CDECDC9FC12D1124C695C69511
:1004C000C69580E38C0F57DECC0F8C2F880F880FDA
:1004D000C80F8D2F8C1B805D4EDE9FEF2FE985E0CE
:1004E000915020408040E1F700C000008091EB0176
:1004F000882351F014BC1092EB011092EA01109283
:10050000E9011092E8011EC087B58F5F87BD87B5EE
:100510008F3E08F4BDCF9FEF2FE780E7915020403A
:100520008040E1F700C000008091EB01882309F4CE
:100530005DCF14BC1092EB011092EA011092E90118
:100540001092E801DF91CF911F91089560E080E063
:1005500028DE82E991E019DE60E081E022DE80E7BA
:1005600091E013DE2FEF8FE790E72150804090401D
:10057000E1F700C0000060E080E013DE83EA91E074
:1005800004DE60E081E00DDE84EB91E0FEDD0895A5
:10059000CF93DCDF47C080910101811106C08091BB
:1005A0000001882321F0C0E303C0C0E301C0C1E320
:1005B00066E080E0F6DD8C2FDEDD8091010188238E
:1005C00031F080910001811104C0C1E303C0C1E397
:1005D00001C0C0E36FE080E0E4DD8C2FCCDD8091D2
:1005E0000101882311F0C1E301C0C0E364E081E0B0
:1005F000D8DD8C2FC0DD909101018091000198170A
:1006000011F0C1E301C0C0E36FE081E0CADD8C2FCF
:10061000B2DD2FEF8FE995E0215080409040E1F767
:1006200000C000008091EB01882309F4B4CF109240
:10063000EB011092EA011092E9011092E801CF91CA
:10064000089560E080E0ADDD85EC91E09EDD60E046
:1006500081E0A7DD86ED91E098DD0895CF93DF93EB
:10066000F0DF5FC080910201811104C01092ED01A2
:100670001092EC018091E901882391F01092E90138
:100680008091EC019091ED0101969093ED018093A2
:10069000EC018031974221F41092ED011092EC01AF
:1006A0008091E801882399F01092E8018091EC0193
:1006B0009091ED0101979093ED018093EC019923C6
:1006C00034F48FE097E29093ED018093EC018FEF8B
:1006D0009FE925E0815090402040E1F700C00000F4
:1006E0006CE080E05EDD8091EC019091ED0168EEC0
:1006F00073E07CD0EC0180E3860F3DDDCE0164E643
:1007000070E074D0EC0180E3860F35DDCE016AE045
:1007100070E06CD0C82F80E3860F2DDD80E38C0F56
:100720002ADD8091EB01882309F49CCF1092EB0124
:100730001092EA011092E9011092E801DF91CF9145
:1007400008958091EB01882329F01092EB0181E05C
:100750008093EE018091EA01882329F01092EA014A
:1007600082E08093EE018091E901882329F01092C4
:10077000E90183E08093EE018091E801882329F06C
:100780001092E80184E08093EE010895B6DD1092A6
:10079000B000E1EBF0E0808182608083E0E7F0E090
:1007A00080818160808378948091EE01823091F025
:1007B00028F4882341F0813049F0F6CF833071F07E
:1007C000843081F0F1CF8CDDBCDFEECFBBDD109249
:1007D000EE01EACFFFDD1092EE01E6CFD9DE1092F6
:1007E000EE01E2CF3BDF1092EE01DECF97FB072E4A
:1007F00016F4009406D077FD08D00BD007FC05D086
:100800003EF4909581959F4F0895709561957F4F27
:100810000895AA1BBB1B51E107C0AA1FBB1FA61747
:10082000B70710F0A61BB70B881F991F5A95A9F799
:0E08300080959095BC01CD010895F894FFCFFE
:10083E0001010101010101010A5A2020202020207E
:10084E0020202020202020202020002020204D614C
:10085E00696E204C6576656C20202000205031207A
:10086E00205032202050332020503420002D20459F
:10087E0078706572696D656E742035202D002020AC
:10088E0050726F6772616D204D656E75202000503D
:10089E00313A20426C696E6B696E67204C4544009C
:1008AE00486F6D6520202020202020202020202031
:1008BE000050323A2043726561746520536F756E35
:1008CE00640050333A204C6F6769632046756E633F
:1008DE00742E0053332653343D30202053332B5384
:1008EE00343D30002F53333D3020205333786F7218
:1008FE0053343D300050343A20436F756E74657238
:10090E00203030303000486F6D6520524553202026
:08091E002B2020202D200000F9
:00000001FF
